{
  "abi": [
    {
      "inputs": [
        {
          "internalType": "contract SemiFungiblePositionManager",
          "name": "_sfpm",
          "type": "address"
        }
      ],
      "stateMutability": "nonpayable",
      "type": "constructor"
    },
    {
      "inputs": [],
      "name": "CastingError",
      "type": "error"
    },
    {
      "inputs": [],
      "name": "EffectiveLiquidityAboveThreshold",
      "type": "error"
    },
    {
      "inputs": [],
      "name": "InputListFail",
      "type": "error"
    },
    {
      "inputs": [],
      "name": "InsufficientCollateralDecrease",
      "type": "error"
    },
    {
      "inputs": [],
      "name": "InvalidNotionalValue",
      "type": "error"
    },
    {
      "inputs": [],
      "name": "InvalidTick",
      "type": "error"
    },
    {
      "inputs": [
        {
          "internalType": "uint256",
          "name": "parameterType",
          "type": "uint256"
        }
      ],
      "name": "InvalidTokenIdParameter",
      "type": "error"
    },
    {
      "inputs": [],
      "name": "NoLegsExercisable",
      "type": "error"
    },
    {
      "inputs": [],
      "name": "NotEnoughCollateral",
      "type": "error"
    },
    {
      "inputs": [],
      "name": "PoolAlreadyInitialized",
      "type": "error"
    },
    {
      "inputs": [],
      "name": "PositionAlreadyMinted",
      "type": "error"
    },
    {
      "inputs": [],
      "name": "TicksNotInitializable",
      "type": "error"
    },
    {
      "inputs": [],
      "name": "TooManyPositionsOpen",
      "type": "error"
    },
    {
      "inputs": [],
      "name": "UnderOverFlow",
      "type": "error"
    },
    {
      "anonymous": false,
      "inputs": [
        {
          "indexed": true,
          "internalType": "address",
          "name": "liquidator",
          "type": "address"
        },
        {
          "indexed": true,
          "internalType": "address",
          "name": "liquidatee",
          "type": "address"
        },
        {
          "indexed": false,
          "internalType": "int256",
          "name": "bonusAmounts",
          "type": "int256"
        },
        {
          "indexed": false,
          "internalType": "int24",
          "name": "tickAt",
          "type": "int24"
        }
      ],
      "name": "AccountLiquidated",
      "type": "event"
    },
    {
      "anonymous": false,
      "inputs": [
        {
          "indexed": true,
          "internalType": "address",
          "name": "exercisor",
          "type": "address"
        },
        {
          "indexed": true,
          "internalType": "address",
          "name": "user",
          "type": "address"
        },
        {
          "indexed": true,
          "internalType": "uint256",
          "name": "tokenId",
          "type": "uint256"
        },
        {
          "indexed": false,
          "internalType": "int256",
          "name": "exerciseFee",
          "type": "int256"
        },
        {
          "indexed": false,
          "internalType": "int24",
          "name": "tickAt",
          "type": "int24"
        }
      ],
      "name": "ForcedExercised",
      "type": "event"
    },
    {
      "anonymous": false,
      "inputs": [
        {
          "indexed": true,
          "internalType": "address",
          "name": "recipient",
          "type": "address"
        },
        {
          "indexed": false,
          "internalType": "uint128",
          "name": "positionSize",
          "type": "uint128"
        },
        {
          "indexed": true,
          "internalType": "uint256",
          "name": "tokenId",
          "type": "uint256"
        },
        {
          "indexed": false,
          "internalType": "int24",
          "name": "tickAtBurn",
          "type": "int24"
        },
        {
          "indexed": false,
          "internalType": "int256",
          "name": "premia",
          "type": "int256"
        }
      ],
      "name": "OptionBurnt",
      "type": "event"
    },
    {
      "anonymous": false,
      "inputs": [
        {
          "indexed": true,
          "internalType": "address",
          "name": "recipient",
          "type": "address"
        },
        {
          "indexed": false,
          "internalType": "uint128",
          "name": "positionSize",
          "type": "uint128"
        },
        {
          "indexed": true,
          "internalType": "uint256",
          "name": "tokenId",
          "type": "uint256"
        },
        {
          "indexed": false,
          "internalType": "int24",
          "name": "tickAtMint",
          "type": "int24"
        },
        {
          "indexed": false,
          "internalType": "uint128",
          "name": "poolUtilizations",
          "type": "uint128"
        }
      ],
      "name": "OptionMinted",
      "type": "event"
    },
    {
      "anonymous": false,
      "inputs": [
        {
          "indexed": true,
          "internalType": "address",
          "name": "recipient",
          "type": "address"
        },
        {
          "indexed": false,
          "internalType": "uint128",
          "name": "positionSize",
          "type": "uint128"
        },
        {
          "indexed": true,
          "internalType": "uint256",
          "name": "oldTokenId",
          "type": "uint256"
        },
        {
          "indexed": true,
          "internalType": "uint256",
          "name": "newTokenId",
          "type": "uint256"
        },
        {
          "indexed": false,
          "internalType": "int24",
          "name": "tickAtRoll",
          "type": "int24"
        },
        {
          "indexed": false,
          "internalType": "uint128",
          "name": "poolUtilizations",
          "type": "uint128"
        },
        {
          "indexed": false,
          "internalType": "int256",
          "name": "premia",
          "type": "int256"
        }
      ],
      "name": "OptionRolled",
      "type": "event"
    },
    {
      "inputs": [
        {
          "internalType": "uint256",
          "name": "tokenId",
          "type": "uint256"
        },
        {
          "internalType": "int24",
          "name": "tickLimitLow",
          "type": "int24"
        },
        {
          "internalType": "int24",
          "name": "tickLimitHigh",
          "type": "int24"
        }
      ],
      "name": "burnOptions",
      "outputs": [],
      "stateMutability": "nonpayable",
      "type": "function"
    },
    {
      "inputs": [
        {
          "internalType": "uint256[]",
          "name": "positionIdList",
          "type": "uint256[]"
        },
        {
          "internalType": "int24",
          "name": "tickLimitLow",
          "type": "int24"
        },
        {
          "internalType": "int24",
          "name": "tickLimitHigh",
          "type": "int24"
        }
      ],
      "name": "burnOptions",
      "outputs": [],
      "stateMutability": "nonpayable",
      "type": "function"
    },
    {
      "inputs": [
        {
          "internalType": "address",
          "name": "user",
          "type": "address"
        },
        {
          "internalType": "uint256[]",
          "name": "positionIdList",
          "type": "uint256[]"
        }
      ],
      "name": "calculateAccumulatedFeesBatch",
      "outputs": [
        {
          "internalType": "int128",
          "name": "premium0",
          "type": "int128"
        },
        {
          "internalType": "int128",
          "name": "premium1",
          "type": "int128"
        },
        {
          "internalType": "uint256[2][]",
          "name": "",
          "type": "uint256[2][]"
        }
      ],
      "stateMutability": "view",
      "type": "function"
    },
    {
      "inputs": [
        {
          "internalType": "address",
          "name": "user",
          "type": "address"
        },
        {
          "internalType": "int24",
          "name": "atTick",
          "type": "int24"
        },
        {
          "internalType": "uint256[]",
          "name": "positionIdList",
          "type": "uint256[]"
        }
      ],
      "name": "calculatePortfolioValue",
      "outputs": [
        {
          "internalType": "int256",
          "name": "value0",
          "type": "int256"
        },
        {
          "internalType": "int256",
          "name": "value1",
          "type": "int256"
        }
      ],
      "stateMutability": "view",
      "type": "function"
    },
    {
      "inputs": [],
      "name": "collateralToken0",
      "outputs": [
        {
          "internalType": "contract CollateralTracker",
          "name": "collateralToken",
          "type": "address"
        }
      ],
      "stateMutability": "view",
      "type": "function"
    },
    {
      "inputs": [],
      "name": "collateralToken1",
      "outputs": [
        {
          "internalType": "contract CollateralTracker",
          "name": "",
          "type": "address"
        }
      ],
      "stateMutability": "view",
      "type": "function"
    },
    {
      "inputs": [
        {
          "internalType": "address",
          "name": "account",
          "type": "address"
        },
        {
          "internalType": "int24",
          "name": "tickLimitLow",
          "type": "int24"
        },
        {
          "internalType": "int24",
          "name": "tickLimitHigh",
          "type": "int24"
        },
        {
          "internalType": "uint256[]",
          "name": "touchedId",
          "type": "uint256[]"
        },
        {
          "internalType": "uint256[]",
          "name": "idsToBurn",
          "type": "uint256[]"
        }
      ],
      "name": "forceExercise",
      "outputs": [],
      "stateMutability": "nonpayable",
      "type": "function"
    },
    {
      "inputs": [],
      "name": "getPriceArray",
      "outputs": [
        {
          "internalType": "int24[]",
          "name": "priceArray",
          "type": "int24[]"
        },
        {
          "internalType": "int24",
          "name": "medianTick",
          "type": "int24"
        }
      ],
      "stateMutability": "view",
      "type": "function"
    },
    {
      "inputs": [
        {
          "internalType": "address",
          "name": "account",
          "type": "address"
        },
        {
          "internalType": "int24",
          "name": "tickLimitLow",
          "type": "int24"
        },
        {
          "internalType": "int24",
          "name": "tickLimitHigh",
          "type": "int24"
        },
        {
          "internalType": "uint256[]",
          "name": "positionIdList",
          "type": "uint256[]"
        }
      ],
      "name": "liquidateAccount",
      "outputs": [],
      "stateMutability": "nonpayable",
      "type": "function"
    },
    {
      "inputs": [
        {
          "internalType": "uint256[]",
          "name": "positionIdList",
          "type": "uint256[]"
        },
        {
          "internalType": "uint128",
          "name": "positionSize",
          "type": "uint128"
        },
        {
          "internalType": "uint64",
          "name": "effectiveLiquidityLimitX32",
          "type": "uint64"
        },
        {
          "internalType": "int24",
          "name": "tickLimitLow",
          "type": "int24"
        },
        {
          "internalType": "int24",
          "name": "tickLimitHigh",
          "type": "int24"
        }
      ],
      "name": "mintOptions",
      "outputs": [],
      "stateMutability": "nonpayable",
      "type": "function"
    },
    {
      "inputs": [
        {
          "internalType": "bytes[]",
          "name": "data",
          "type": "bytes[]"
        }
      ],
      "name": "multicall",
      "outputs": [
        {
          "internalType": "bytes[]",
          "name": "results",
          "type": "bytes[]"
        }
      ],
      "stateMutability": "payable",
      "type": "function"
    },
    {
      "inputs": [
        {
          "internalType": "address",
          "name": "user",
          "type": "address"
        }
      ],
      "name": "numberOfPositions",
      "outputs": [
        {
          "internalType": "uint256",
          "name": "_numberOfPositions",
          "type": "uint256"
        }
      ],
      "stateMutability": "view",
      "type": "function"
    },
    {
      "inputs": [
        {
          "internalType": "address",
          "name": "",
          "type": "address"
        },
        {
          "internalType": "address",
          "name": "",
          "type": "address"
        },
        {
          "internalType": "uint256[]",
          "name": "",
          "type": "uint256[]"
        },
        {
          "internalType": "uint256[]",
          "name": "",
          "type": "uint256[]"
        },
        {
          "internalType": "bytes",
          "name": "",
          "type": "bytes"
        }
      ],
      "name": "onERC1155BatchReceived",
      "outputs": [
        {
          "internalType": "bytes4",
          "name": "",
          "type": "bytes4"
        }
      ],
      "stateMutability": "nonpayable",
      "type": "function"
    },
    {
      "inputs": [
        {
          "internalType": "address",
          "name": "",
          "type": "address"
        },
        {
          "internalType": "address",
          "name": "",
          "type": "address"
        },
        {
          "internalType": "uint256",
          "name": "",
          "type": "uint256"
        },
        {
          "internalType": "uint256",
          "name": "",
          "type": "uint256"
        },
        {
          "internalType": "bytes",
          "name": "",
          "type": "bytes"
        }
      ],
      "name": "onERC1155Received",
      "outputs": [
        {
          "internalType": "bytes4",
          "name": "",
          "type": "bytes4"
        }
      ],
      "stateMutability": "nonpayable",
      "type": "function"
    },
    {
      "inputs": [
        {
          "internalType": "address",
          "name": "user",
          "type": "address"
        },
        {
          "internalType": "uint256",
          "name": "tokenId",
          "type": "uint256"
        }
      ],
      "name": "optionPositionBalance",
      "outputs": [
        {
          "internalType": "uint128",
          "name": "balance",
          "type": "uint128"
        },
        {
          "internalType": "uint64",
          "name": "poolUtilization0",
          "type": "uint64"
        },
        {
          "internalType": "uint64",
          "name": "poolUtilization1",
          "type": "uint64"
        }
      ],
      "stateMutability": "view",
      "type": "function"
    },
    {
      "inputs": [],
      "name": "pokeMedian",
      "outputs": [],
      "stateMutability": "nonpayable",
      "type": "function"
    },
    {
      "inputs": [
        {
          "internalType": "contract IUniswapV3Pool",
          "name": "univ3pool",
          "type": "address"
        },
        {
          "internalType": "int24",
          "name": "tickSpacing",
          "type": "int24"
        },
        {
          "internalType": "int24",
          "name": "currentTick",
          "type": "int24"
        },
        {
          "internalType": "address",
          "name": "token0",
          "type": "address"
        },
        {
          "internalType": "address",
          "name": "token1",
          "type": "address"
        },
        {
          "internalType": "contract CollateralTracker",
          "name": "collateralTracker0",
          "type": "address"
        },
        {
          "internalType": "contract CollateralTracker",
          "name": "collateralTracker1",
          "type": "address"
        }
      ],
      "name": "startPool",
      "outputs": [],
      "stateMutability": "nonpayable",
      "type": "function"
    },
    {
      "inputs": [
        {
          "internalType": "bytes4",
          "name": "interfaceId",
          "type": "bytes4"
        }
      ],
      "name": "supportsInterface",
      "outputs": [
        {
          "internalType": "bool",
          "name": "",
          "type": "bool"
        }
      ],
      "stateMutability": "view",
      "type": "function"
    },
    {
      "inputs": [],
      "name": "univ3pool",
      "outputs": [
        {
          "internalType": "contract IUniswapV3Pool",
          "name": "",
          "type": "address"
        }
      ],
      "stateMutability": "view",
      "type": "function"
    }
  ],
  "bytecode": {
    "object": "0x60a034620000bd57601f62005cbd38819003918201601f19168301916001600160401b03831184841017620000c257808492602094604052833981010312620000bd57516001600160a01b0381168103620000bd57608052604051615be49081620000d98239608051818181611449015281816119bd015281816121e0015281816127ad0152818161289e01528181612cba0152818161321101528181613af5015281816141340152818161464801528181614bdb0152614d340152f35b600080fd5b634e487b7160e01b600052604160045260246000fdfe61016080604052600436101561001457600080fd5b600090813560e01c90816301ffc9a714613382575080630ee8e63a1461329d57806312cfdc3e146130995780632a3f8025146126b15780633f7ea9f8146126825780634d7b09001461265b5780634f94c530146126355780637594cdc31461260e578063799ee0c5146124e25780637f96a0641461249e5780639093b3f214610d4c578063ac9650d814610b39578063b39058a5146104cc578063bc197c8114610426578063cde6008a146102ce578063cf1a1f2b1461025c578063d02006f71461020f578063f23a6e611461019c5763f34f6c1a146100f357600080fd5b34610199578060031936011261019957600460e06001600160a01b03835416604051928380927f3850c7bd0000000000000000000000000000000000000000000000000000000082525afa801561018e57610155918391610158575b50614986565b80f35b61017a915060e03d60e011610187575b6101728183613533565b810190613688565b505050505090503861014f565b503d610168565b6040513d84823e3d90fd5b80fd5b50346101995760a0600319360112610199576101b6613422565b506101bf613438565b5060843567ffffffffffffffff811161020b576101e0903690600401613624565b5060206040517ff23a6e61000000000000000000000000000000000000000000000000000000008152f35b5080fd5b50346101995760606003193601126101995760043567ffffffffffffffff811161020b5761024461015591369060040161344e565b9061024d6134e3565b6102556134f3565b903361403c565b50346101995760406003193601126101995760406060916001600160a01b03610283613422565b168152600560205281812060243582526020522054604051906fffffffffffffffffffffffffffffffff8116825267ffffffffffffffff8160801c16602083015260c01c6040820152f35b5034610199576060600319360112610199576102e8613422565b6102f06134e3565b60443567ffffffffffffffff81116104225761031090369060040161344e565b90916001600160a01b03808654169416855260056020526040852090604051947f45e40e62000000000000000000000000000000000000000000000000000000008652600486015260020b60248501526044840152608060648401528060848401527f07ffffffffffffffffffffffffffffffffffffffffffffffffffffffffffffff81116104225760a483604093819360051b809184840137810103018173__$9f077143e996b76ac7ae6b037b4daec59b$__5af4801561018e57829183916103e5575b6040838382519182526020820152f35b9150506040813d60401161041a575b8161040160409383613533565b8101031261020b576040915060208151910151386103d5565b3d91506103f4565b8380fd5b50346101995760a060031936011261019957610440613422565b50610449613438565b5067ffffffffffffffff6044358181116104c85761046b90369060040161358c565b506064358181116104c85761048490369060040161358c565b5060843590811161020b5761049d903690600401613624565b5060206040517fbc197c81000000000000000000000000000000000000000000000000000000008152f35b8280fd5b5034610199576080600319360112610199576104e6613422565b6104ee6134e3565b906104f76134f3565b9060643567ffffffffffffffff8111610b355761051890369060040161344e565b9390926001600160a01b03831660005260066020526040600020546000805b878110610b15575003610aeb5761054d91613dee565b9150919461055d8682878761374e565b610565614acc565b9361056f85614dfc565b956001600160a01b0360025416948b604051987f68e7bb46000000000000000000000000000000000000000000000000000000008a526001600160a01b038b1660048b015260c060248b015260408a806105cc60c482018a61347f565b8560448301528c60020b60648301528560848301528a600f0b60a483015203818b5afa998a1561018e578b929a610aba575b506040918a6001600160a01b03809381600354169c61065787519b8c9788977f68e7bb4600000000000000000000000000000000000000000000000000000000895216600488015260c0602488015260c487019061347f565b93604486015260020b60648501521660848301528860801d600f0b60a483015203818a5afa998a15610aaf578c948d9b610a78575b508c86600f0b13600014610a715785600f0b955b8d8160801d600f0b13600014610a695760801d600f0b935b8d883b15610199576040517fc26f3acf0000000000000000000000000000000000000000000000000000000081523360048201526001600160a01b038d1660248201526fffffffffffffffffffffffffffffffff7fffffffffffffffffffffffffffffffff000000000000000000000000000000008f1660808e901c011660448201528181606481838e5af1801561018e57610a55575b50893b15610199578b818c8f7fffffffffffffffffffffffffffffffff00000000000000000000000000000000838f926107f4604051978896879586947fc26f3acf000000000000000000000000000000000000000000000000000000008652169060801c0160801c9033600485019193926fffffffffffffffffffffffffffffffff9060409260608501966001600160a01b03809216865216602085015216910152565b03925af1801561018e57610a3d575b505061080f938b61403c565b60801b916fffffffffffffffffffffffffffffffff160101948560801d600f0b7fffffffffffffffffffffffffffffffff0000000000000000000000000000000082168560801c0160801c01938480600f0b03610a13576fffffffffffffffffffffffffffffffff907fffffffffffffffffffffffffffffffff0000000000000000000000000000000088600f0b93169060801c0116018080600f0b03610a1357879360801b906fffffffffffffffffffffffffffffffff1601813b15610422576040517fcd806c8b000000000000000000000000000000000000000000000000000000008082523360048301526001600160a01b03871660248301526fffffffffffffffffffffffffffffffff831660448301529285908290606490829084905af1908115610a085785916109f4575b5050823b15610422576040519182523360048301526001600160a01b038516602483015260801d6fffffffffffffffffffffffffffffffff16604482015290829082908183816064810103925af1801561018e576109e0575b50506040805192835260029390930b60208301526001600160a01b03169133917fb85eac53eb098fd77cc62f9e8acd6aadd9490f4e8c29a62604e499ef2b6c8ddd9190a380f35b6109e990613503565b610422578338610999565b6109fd90613503565b610422578338610940565b6040513d87823e3d90fd5b60046040517fd2190174000000000000000000000000000000000000000000000000000000008152fd5b610a4690613503565b610a51578d38610803565b8d80fd5b610a5e90613503565b610a51578d3861074f565b508c936106b8565b8c956106a0565b909a50610a9e91945060403d604011610aa8575b610a968183613533565b810190614908565b939093993861068c565b503d610a8c565b6040513d8e823e3d90fd5b6001600160a01b039a50918a91610adf604094853d8711610aa857610a968183613533565b90509b509150916105fe565b60046040517f99e877ce000000000000000000000000000000000000000000000000000000008152fd5b90610b2e600191610b27848b8b6136fb565b35906151f3565b9101610537565b8480fd5b5060208060031936011261020b5767ffffffffffffffff60043581811161042257610b6890369060040161344e565b610b7181613574565b92610b7f6040519485613533565b8184527fffffffffffffffffffffffffffffffffffffffffffffffffffffffffffffffe09283610bae84613574565b0186885b828110610d3c57505050865b838110610c7857505050506040519280840190808552835180925260408501928160408460051b88010195019387915b848310610bfb5787870388f35b9091929394957fffffffffffffffffffffffffffffffffffffffffffffffffffffffffffffffc0888203018352848288518b815191828652815b838110610c5e575050818501840152601f01169091018101968101959493600101920190610bee565b8082018601518782018701528a958895508f935001610c35565b878160051b8301357fffffffffffffffffffffffffffffffffffffffffffffffffffffffffffffffe18436030181121561020b5783018035908582116104c85789019080360382136104c857829181604051928392833781018381520390305af43d15610d34573d90610cea826135ea565b91610cf86040519384613533565b82523d8a8a84013e5b15610d2d5781600191610d178b9695948a61373a565b52610d22818961373a565b500190919250610bbe565b8781519101fd5b606090610d01565b606082828a010152018790610bb2565b50346101995760a060031936011261019957610d66613422565b61014052610d726134e3565b61010052610d7e6134f3565b67ffffffffffffffff60643581811161042257610d9f90369060040161344e565b91906101205260843590811161042257610dbd90369060040161344e565b60a05260018203610aeb57610dd0614acc565b608052811561247157835492610df38460a01c60020b6080516101205135615afa565b6001600160a01b03610140511685526005602052604085206101205135865260205260e06001600160a01b03610e4a8660a01c60020b6fffffffffffffffffffffffffffffffff60408a20541661012051356154cb565b9290966004604051809481937f3850c7bd000000000000000000000000000000000000000000000000000000008352165afa8015611e8d578760c052612449575b50600090610e9885613574565b610ea56040519182613533565b8581527fffffffffffffffffffffffffffffffffffffffffffffffffffffffffffffffe0610ed287613574565b01835b818110612429575050825b868110611f0c57505090610ef391615917565b936001600160a01b0361014051168652600560205260408620610120513587526020526fffffffffffffffffffffffffffffffff6040872054166001600160a01b036002541691610f70600260015462ffffff808281601860078360cc1c1602161c16830b9181601860078360c91c1602161c16820b01810b0590565b91604051927ffc380c2200000000000000000000000000000000000000000000000000000000845260c05160020b600485015260020b6024840152610120513560448401526064830152608482015260208160a481855afa8015611e8d578760e052611ed9575b503360009081526006602052604090205460f81c611cc0575b505050826001600160a01b0360025416803b1561020b576040517fc26f3acf000000000000000000000000000000000000000000000000000000008152610140513360048301526001600160a01b031660248201526fffffffffffffffffffffffffffffffff851660448201529082908290606490829084905af1801561018e57611cac575b506001600160a01b0360035416803b1561020b576040517fc26f3acf000000000000000000000000000000000000000000000000000000008152610140513360048301526001600160a01b03166024820152608085901d6fffffffffffffffffffffffffffffffff1660448201529082908290606490829084905af1801561018e57611c98575b50919060005b81811061133e57505060e051611118916158c2565b6001600160a01b03600254166001600160a01b0360035416604051927f76ab48340000000000000000000000000000000000000000000000000000000084526001600160a01b0361014051166004850152602484015260805160020b60448401526064830152602082608481845afa9182156113335783926112f7575b50803b156112e8576040517f3bec831b00000000000000000000000000000000000000000000000000000000808252610140516001600160a01b03166004830152336024830152600f84900b60448301529184908290606490829084905af19081156112ec5784916112d4575b50506001600160a01b036003541691823b156112cf57604051918252610140516001600160a01b0316600483015233602483015260801d600f0b60448201529082908290606490829084905af1801561018e576112bb575b506040516101205135906001600160a01b036101405116907f228b5ca9594622ea4697a5a87f0785e0b4baf579a08d13fcc36094731d50a44e3391806112b560c05160e051839092916020906040830194835260020b910152565b0390a480f35b6112c490613503565b61019957803861125a565b505050fd5b6112dd90613503565b6112e8578238611202565b5050fd5b6040513d86823e3d90fd5b925090506020823d60201161132b575b8161131460209383613533565b81010312611326578291519038611195565b600080fd5b3d9150611307565b6040513d85823e3d90fd5b8192935061135281600493610120516136fb565b3560e06001600160a01b0360005416604051948580927f3850c7bd0000000000000000000000000000000000000000000000000000000082525afa92831561177e57600093611c70575b506001600160a01b03610140511660005260056020526040600020816000526020526fffffffffffffffffffffffffffffffff604060002054166040517f266601a3000000000000000000000000000000000000000000000000000000008152826004820152816024820152620d89e760448201527ffffffffffffffffffffffffffffffffffffffffffffffffffffffffffff27619606482015260608160848160006001600160a01b037f0000000000000000000000000000000000000000000000000000000000000000165af1801561177e576000918291611c38575b5061148590614986565b60009061149184615a5b565b825b8181106117cc57506114ae60005460a01c60020b85876154cb565b6002546040517f083953d9000000000000000000000000000000000000000000000000000000008152610140516001600160a01b039081166004830152600f85810b602484015284810b604484015287810b606484015288900b60848301529096929391602091889160a4918391600091165af195861561177e5760009661178a575b506003546040517f083953d9000000000000000000000000000000000000000000000000000000008152610140516001600160a01b039081166004830152608093841d600f90810b602484015295841d860b604483015296831d850b60648201529290911d90920b608482015292602091849160a4918391600091165af191821561177e57600092611742575b506001600160a01b03610140511660005260056020526040600020856000526020526000604081205560005b8181106116d15750506001600160a01b036101405116600052600660205261161784604060002054615246565b9560208760f81c116116a7576001966001600160a01b036101405116600052600660205260406000205560405193845260020b602084015260801b906fffffffffffffffffffffffffffffffff160160408201527f595c92689333e5f7a6d5b4a40d80bf6339d70bd322c44cea25cafefae7f6701a60606001600160a01b03610140511692a30190839291611103565b60046040517f8026d19e000000000000000000000000000000000000000000000000000000008152fd5b8060018760486030839502011c161561171f575b6001600160a01b036101405116600052600460205260406000208760005260205260406000208160005260205260006040812055016115ea565b61173d61173560005460a01c60020b838a615970565b90838a614b6e565b6116e5565b90916020823d602011611776575b8161175d60209383613533565b81010312610199575061176f90613f1d565b90386115be565b3d9150611750565b6040513d6000823e3d90fd5b90956020823d6020116117c4575b816117a560209383613533565b810103126101995750906117bb60209392613f1d565b95909192611531565b3d9150611798565b60018087604860308502011c16148015611c30575b6117ee575b600101611493565b92600054906118048260a01c60020b8689615970565b906000607f8a604160308b02011c1690898281020482148a151715611c03575060018a60308a026040011c1615600014611b80576118c56118ca9160d06001600160a01b036118ab60e86118a17cffffff00000000000000000000000000000000000000000000000000008a861b167fffffff00000000000000000000000000000000000000000000000000000000008a841b160180921d614dfc565b931c60020b614dfc565b916118ba8282168385166151a5565b920316918c02615456565b615262565b935b604080517f3cc3c1da0000000000000000000000000000000000000000000000000000000081526001600160a01b0392831660048201523060248201526001604960308c029081018e901c821660448401527cffffff000000000000000000000000000000000000000000000000000060d088811b919091167fffffff000000000000000000000000000000000000000000000000000000000060e889811b919091166fffffffffffffffffffffffffffffffff8d1601919091019081901d600290810b6064870152911c900b6084840152627fffff60a48401526048018d901c1660c482015291829060e49082907f0000000000000000000000000000000000000000000000000000000000000000165afa91821561177e576001958b6000938495611b0e575b506fffffffffffffffffffffffffffffffff809381937fffffffffffffffffffffffffffffffff00000000000000000000000000000000936001600160a01b03610140511660005260046020526040600020906000526020528d604060002090600052602052827fffffff00000000000000000000000000000000000000000000000000000000007cffffff00000000000000000000000000000000000000000000000000006040600020549b60d01b169360e81b1691160101168095838860801c9116030260401b1694169116030260401c6fffffffffffffffffffffffffffffffff16018288604860308902011c1615600014611aff57611af6916158c2565b935b90506117e6565b611b0891615917565b93611af8565b7fffffffffffffffffffffffffffffffff000000000000000000000000000000009195506fffffffffffffffffffffffffffffffff9384939550611b6a849260403d604011611b79575b611b628183613533565b810190613f6e565b969096979350935093506119f4565b503d611b58565b6118c5611bfd916001600160a01b0360d0611bf360e8611be97cffffff00000000000000000000000000000000000000000000000000008a851b167fffffff00000000000000000000000000000000000000000000000000000000008a841b160180921d614dfc565b921c60020b614dfc565b0316908b026152a9565b936118cc565b807f4e487b7100000000000000000000000000000000000000000000000000000000602492526011600452fd5b5060016117e1565b6114859250611c5f915060603d606011611c69575b611c578183613533565b810190613efb565b929150919061147b565b503d611c4d565b611c8a91935060e03d60e011610187576101728183613533565b50505050509050913861139c565b611ca190613503565b6104c85782386110fd565b611cb590613503565b6104c8578238611076565b611cd060c05160a051853361374e565b9190602060405180937f94fe14e10000000000000000000000000000000000000000000000000000000082528180611d1386600f0b8960c051336004860161491e565b03915afa918215611ece578892611e98575b50611d7a926020916001600160a01b0360035416906040518096819482937f94fe14e100000000000000000000000000000000000000000000000000000000845260801d600f0b9060c051336004860161491e565b03915afa908115611e8d578791611e57575b611e0e92506fffffffffffffffffffffffffffffffff611db060e051600f0b614956565b166fffffffffffffffffffffffffffffffff611dd360e05160801d600f0b614956565b1692611de0608051614dfc565b937fffffffffffffffffffffffffffffffff0000000000000000000000000000000080921601921601613fc8565b10611e2d57611e259160a05191610100513361403c565b388080610ff0565b60046040517f2abeaa84000000000000000000000000000000000000000000000000000000008152fd5b90506020823d602011611e85575b81611e7260209383613533565b8101031261132657611e0e915190611d8c565b3d9150611e65565b6040513d89823e3d90fd5b9091506020813d602011611ec6575b81611eb460209383613533565b81010312611326575190611d7a611d25565b3d9150611ea7565b6040513d8a823e3d90fd5b6020813d602011611f04575b81611ef260209383613533565b81010312611326575160e05238610fd7565b3d9150611ee5565b611f1a8188610120516136fb565b356001600160a01b036101405116600052600560205260406000208160005260205260406000205481611f4d848661373a565b5152806020611f5c858761373a565b5101526fffffffffffffffffffffffffffffffff8116611f81575b5050600101610ee0565b60009591929592611f9181615a5b565b90845b828110611fb35750505050600191611fab916158c2565b939038611f77565b60018083604860308502011c16148015612421575b611fd5575b600101611f94565b9460005490611feb8260a01c60020b8885615970565b92607f604160308b020186901c1660006fffffffffffffffffffffffffffffffff8916808302819004831490151715611c0357509060406001876121d48d878d8b809a998787603087028b011c161560001461239257916118c5916120e2936fffffffffffffffffffffffffffffffff6001600160a01b036120c860d0946120be7cffffff000000000000000000000000000000000000000000000000000060e892881b167fffffff00000000000000000000000000000000000000000000000000000000008c841b160180921d614dfc565b951c60020b614dfc565b936120d78282168387166151a5565b940316931602615456565b9a8b925b87517f3cc3c1da00000000000000000000000000000000000000000000000000000000815260c0516001600160a01b03909a1660048201523060248201526030919091026049810187901c881660448301526fffffffffffffffffffffffffffffffff90941660e893841b7fffffff0000000000000000000000000000000000000000000000000000000000160160d092831b7cffffff000000000000000000000000000000000000000000000000000016019283901d600290810b60648301529290911c820b608482015296900b60a48701526048019190911c90911660c48401528290819060e4820190565b03816001600160a01b037f0000000000000000000000000000000000000000000000000000000000000000165afa91821561177e576001958b6000938495612330575b506fffffffffffffffffffffffffffffffff809381937fffffffffffffffffffffffffffffffff00000000000000000000000000000000936001600160a01b036101405116600052600460205260406000208d600052602052604060002090600052602052827fffffff00000000000000000000000000000000000000000000000000000000007cffffff00000000000000000000000000000000000000000000000000006040600020549b60d01b169360e81b1691160101168095838860801c9116030260401b1694169116030260401c6fffffffffffffffffffffffffffffffff16018284604860308b02011c161560001461232157612318916158c2565b955b9050611fcd565b61232a91615917565b9561231a565b7fffffffffffffffffffffffffffffffff000000000000000000000000000000009195506fffffffffffffffffffffffffffffffff9384939550612383849260403d604011611b7957611b628183613533565b96909697935093509350612217565b91612419926fffffffffffffffffffffffffffffffff6001600160a01b036118c59461240f60d091611be97cffffff000000000000000000000000000000000000000000000000000060e892851b167fffffff00000000000000000000000000000000000000000000000000000000008c841b160180921d614dfc565b03169216026152a9565b9a8b926120e6565b506000611fc8565b60209060405161243881613517565b604036823782828601015201610ed5565b6124619060e03d60e011610187576101728183613533565b5050505050905060c05238610e8b565b6024847f4e487b710000000000000000000000000000000000000000000000000000000081526032600452fd5b50346101995760206003193601126101995760206124da6124bd613422565b6001600160a01b0316600052600660205260406000205460f81c90565b604051908152f35b50346101995780600319360112610199576001908154604051610120810181811067ffffffffffffffff8211176125df576040949193945260089384845260209485850193610100368637825b8281106125b45750505061256f600260015462ffffff808281601860078360cc1c1602161c16830b9181601860078360c91c1602161c16820b01810b0590565b9160405194604086019060408752518091526060860194925b81811061259e57600285900b8888015286860387f35b835160020b865294870194928701928201612588565b938462ffffff83839699976018021c1660020b6125d4826007038861373a565b52019592939561252f565b7f4e487b7100000000000000000000000000000000000000000000000000000000600052604160045260246000fd5b503461019957806003193601126101995760206001600160a01b0360025416604051908152f35b50346101995780600319360112610199576001600160a01b036020915416604051908152f35b503461019957806003193601126101995760206001600160a01b0360035416604051908152f35b50346101995760606003193601126101995761015561269f6134e3565b6126a76134f3565b9033600435614072565b50346101995760a06003193601126101995760043567ffffffffffffffff811161020b576126e390369060040161344e565b6fffffffffffffffffffffffffffffffff60243516602435036104c85767ffffffffffffffff60443516604435036104c85760643560020b606435036113265760843560020b6084350361132657612740600019820182846136fb565b35913360005260066020526040600020546000805b60001985018110613080575003610aeb576001600160a01b03845416604051907fcaa9a08d00000000000000000000000000000000000000000000000000000000825260048201526020816024816001600160a01b037f0000000000000000000000000000000000000000000000000000000000000000165afa8015610a08578590613035575b67ffffffffffffffff91501667ffffffffffffffff841603613004573384526005602052604084208385526020526040842054612fda5761289191606091612828608435606435613dee565b6040517ffdf90cc1000000000000000000000000000000000000000000000000000000008152600481018a9052602480356fffffffffffffffffffffffffffffffff1690820152600291820b604482015291900b60648201529195909490829081906084820190565b03818a6001600160a01b037f0000000000000000000000000000000000000000000000000000000000000000165af1908115611e8d57859288918993612fb4575b506128dc83614986565b889460609181612f2d575b50506128fd895460a01c60020b6024358a6154cb565b9060607fffffffffffffffffffffffffffffffffffffffffffffffffffffffffff0000008c8a6001600160a01b0360025416916040519a8b9485937f1e364a4e00000000000000000000000000000000000000000000000000000000855262ffffff8d169262ffffff65ffffff0000003360301b9360181b16911601011601600483015285600f0b602483015286600f0b60448301528b600f0b60648301526000608483015288600f0b60a483015260e060c4830152816129c160e482018a61347f565b03925af1938415612f225788928c978d96612ed0575b50907fffffffffffffffffffffffffffffffffffffffffffffffffffffffffff000000979860609493926001600160a01b0360035416938d6040519b8c977f1e364a4e00000000000000000000000000000000000000000000000000000000895262ffffff8d169262ffffff65ffffff0000003360301b9360181b16911601011601600487015260801d600f0b602486015260801d600f0b604485015260801d600f0b60648401528c60801d600f0b608484015260801d600f0b60a483015260e060c4830152818c81612aad60e482018861347f565b03925af1908115612ec55789948a92612e90575b5051612e01575b505050336000526006602052604060002054604051602081019087825260208152612af281613517565b7effffffffffffffffffffffffffffffffffffffffffffffffffffffffffffff91829151902016818316181690602060018260f81c0160f81b830160f81c116116a75760019033600052600660205260f81c0160f81b01604060002055612b5885615a5b565b865b818110612c1e575050906fffffffffffffffffffffffffffffffff929133875260056020526040872086885260205260401b8316908316019082602435167fffffffffffffffffffffffffffffffff000000000000000000000000000000008360801b16016040872055604051938360243516855262ffffff65ffffff0000003360301b9360181b169116010160020b60208401521660408201527fbd31a046a715e96527d5f9cc8250bf847cdd03bcbf41234f5adb05c48af04ff860603392a380f35b875490612c328260a01c60020b828a615970565b906001600160a01b03604051947f3cc3c1da0000000000000000000000000000000000000000000000000000000086521660048501523060248501526030830260018b604983011c1660448601528160020b60648601528260020b6084860152627fffff60a486015260018b604883011c1660c48601528b60408660e4816001600160a01b037f0000000000000000000000000000000000000000000000000000000000000000165afa8015612df457604860019793838f938a966040918897918491612d9e575b507fffffffffffffffffffffffffffffffff000000000000000000000000000000006fffffffffffffffffffffffffffffffff9133865260046020528486208987526020528d85872090875260205260801b16911601912055011c1614612d64575b505001612b5a565b612d91916409000000008067ffffffffffffffff6044351610600014612d985750604435915b848c614cc7565b3880612d5c565b91612d8a565b7fffffffffffffffffffffffffffffffff0000000000000000000000000000000092506fffffffffffffffffffffffffffffffff9150612dea90843d8611611b7957611b628183613533565b9290929150612cfa565b50604051903d90823e3d90fd5b612e5362ffffff612e5994167fffffffffffffffffffffffffffffffffffffffffffffffffffffffffff0000003360301b65ffffff0000008a60181b1662ffffff8c160101160160181c60020b614dfc565b91613fc8565b11612e6657388080612ac8565b60046040517f34477cc0000000000000000000000000000000000000000000000000000000008152fd5b909450612eb5915060603d606011612ebe575b612ead8183613533565b810190613f2b565b50909338612ac1565b503d612ea3565b6040513d8b823e3d90fd5b7fffffffffffffffffffffffffffffffffffffffffffffffffffffffffff00000098506060949392919650612f1190853d8711612ebe57612ead8183613533565b5099909996919293945098976129d7565b6040513d8d823e3d90fd5b90809650612f81925062ffffff7fffffffffffffffffffffffffffffffffffffffffffffffffffffffffff000000818716913360301b9065ffffff0000008c60181b16908a160101160160020b913361374e565b946020612faa8793976000196fffffffffffffffffffffffffffffffff6024351694019061373a565b51015238806128e7565b909250612fd0915060603d606011611c6957611c578183613533565b91509091386128d2565b60046040517fa60e5cc8000000000000000000000000000000000000000000000000000000008152fd5b602484604051907f93db02630000000000000000000000000000000000000000000000000000000082526004820152fd5b506020813d602011613078575b8161304f60209383613533565b81010312610b35575167ffffffffffffffff81168103610b355767ffffffffffffffff906127dc565b3d9150613042565b90613092600191610b278488886136fb565b9101612755565b50346101995760e0600319360112610199576004356001600160a01b03908181168091036104c8576130c96134e3565b6130d16134f3565b9260643590808216809203613263576084358181168091036132995760a435938285168095036132955760c435968388168098036132915788548481166132675789977fffffffffffffffffff00000000000000000000000000000000000000000000007af590a6f276170d89e9f276170d89e9f276170d89e90000000000009460a01b76ffffff00000000000000000000000000000000000000001692161717875565ffffff00000062ffffff82169160181b164260d81b010101600155857fffffffffffffffffffffffff000000000000000000000000000000000000000085816002541617600255600354161760035573__$8c16b23d834eef12defc5f96132cc23617$__90813b156132635760a49360405197889687957fdbfff1ca0000000000000000000000000000000000000000000000000000000087527f000000000000000000000000000000000000000000000000000000000000000016600487015260248601526044850152606484015260848301525af4801561018e5761325a575080f35b61015590613503565b8580fd5b60046040517f7983c051000000000000000000000000000000000000000000000000000000008152fd5b8880fd5b8780fd5b8680fd5b5034610199576040600319360112610199576132b7613422565b6024359067ffffffffffffffff82116104c8576132d96004923690840161344e565b9160e06001600160a01b03865416604051958680927f3850c7bd0000000000000000000000000000000000000000000000000000000082525afa938415610a085761332a959461335a575b5061374e565b9061335660405192828493600f0b845260801d600f0b602084015260606040840152606083019061347f565b0390f35b61337491945060e03d60e011610187576101728183613533565b505050505090509238613324565b90503461020b57602060031936011261020b576004357fffffffff0000000000000000000000000000000000000000000000000000000081168091036104c857602092507f4e2312e00000000000000000000000000000000000000000000000000000000081149081156133f8575b5015158152f35b7f01ffc9a700000000000000000000000000000000000000000000000000000000915014386133f1565b600435906001600160a01b038216820361132657565b602435906001600160a01b038216820361132657565b9181601f840112156113265782359167ffffffffffffffff8311611326576020808501948460051b01011161132657565b9081518082526020808093019301916000805b8382106134a157505050505090565b9091929394838651829084915b600283106134cd57505050604060019201960192019093929193613492565b81518152879360019093019291820191016134ae565b602435908160020b820361132657565b604435908160020b820361132657565b67ffffffffffffffff81116125df57604052565b6040810190811067ffffffffffffffff8211176125df57604052565b90601f7fffffffffffffffffffffffffffffffffffffffffffffffffffffffffffffffe0910116810190811067ffffffffffffffff8211176125df57604052565b67ffffffffffffffff81116125df5760051b60200190565b81601f82011215611326578035916135a383613574565b926135b16040519485613533565b808452602092838086019260051b820101928311611326578301905b8282106135db575050505090565b813581529083019083016135cd565b67ffffffffffffffff81116125df57601f017fffffffffffffffffffffffffffffffffffffffffffffffffffffffffffffffe01660200190565b81601f820112156113265780359061363b826135ea565b926136496040519485613533565b8284526020838301011161132657816000926020809301838601378301015290565b51908160020b820361132657565b519061ffff8216820361132657565b908160e09103126113265780516001600160a01b038116810361132657916136b26020830161366b565b916136bf60408201613679565b916136cc60608301613679565b916136d960808201613679565b9160a082015160ff811681036113265760c09092015180151581036113265790565b919081101561370b5760051b0190565b7f4e487b7100000000000000000000000000000000000000000000000000000000600052603260045260246000fd5b805182101561370b5760209160051b010190565b9392919360009261375e86613574565b9561376c6040519788613533565b8087527fffffffffffffffffffffffffffffffffffffffffffffffffffffffffffffffe061379982613574565b0160005b818110613dce57505060005b8181106137b95750505050509190565b6137c48183876136fb565b356001600160a01b0385166000526005602052604060002081600052602052604060002054816137f4848c61373a565b5152806020613803858d61373a565b5101526fffffffffffffffffffffffffffffffff8116613828575b50506001016137a9565b6000979192979261383881615a5b565b9160005b83811061385b5750505050600191613853916158c2565b95903861381e565b60018084604860308502011c16148015613dc6575b61387d575b60010161383c565b94600054906138938260a01c60020b8886615970565b9290607f86604160308c02011c166fffffffffffffffffffffffffffffffff8616816fffffffffffffffffffffffffffffffff8816020481146fffffffffffffffffffffffffffffffff8716151715613d975760018760308c026040011c1615600014613d0d576118c561398f9160d06001600160a01b0361396360e86118a17cffffff00000000000000000000000000000000000000000000000000008c861b167fffffff00000000000000000000000000000000000000000000000000000000008a841b160180921d614dfc565b916139728282168385166151a5565b920316916fffffffffffffffffffffffffffffffff8a1602615456565b8b604051917f3cc3c1da0000000000000000000000000000000000000000000000000000000083528260d0958d60e8948c80603084026048011c600116928c8b1b7cffffff0000000000000000000000000000000000000000000000000000168a891b7fffffff0000000000000000000000000000000000000000000000000000000000166fffffffffffffffffffffffffffffffff891601018b1c60020b918d8c1b7cffffff0000000000000000000000000000000000000000000000000000168b8a1b7fffffff0000000000000000000000000000000000000000000000000000000000166fffffffffffffffffffffffffffffffff8a160101891d916030026049011c60011630956001600160a01b0316956004880196613af19793909260c095929897969360e08601996001600160a01b038092168752166020860152604085015260020b606084015260020b608083015260020b60a08201520152565b03837f00000000000000000000000000000000000000000000000000000000000000006001600160a01b031691815a93604094fa93841561177e578f978d8b60019a600097600099613c55575b507fffffff00000000000000000000000000000000000000000000000000000000007fffffffffffffffffffffffffffffffff00000000000000000000000000000000957cffffff00000000000000000000000000000000000000000000000000006fffffffffffffffffffffffffffffffff9995968a9995978a986001600160a01b038a971660005260046020526040600020906000526020526040600020906000526020526040600020549d1b16941b1691160101168095838860801c9116030260401b1694169116030260401c6fffffffffffffffffffffffffffffffff16018285604860308b02011c1615600014613c4657613c3d916158c2565b955b9050613875565b613c4f91615917565b95613c3f565b6fffffffffffffffffffffffffffffffff9793889793889687949c506001600160a01b039b507fffffffffffffffffffffffffffffffff0000000000000000000000000000000098927cffffff000000000000000000000000000000000000000000000000000092613cf67fffffff00000000000000000000000000000000000000000000000000000000009660403d604011611b7957611b628183613533565b9e909e9f975050969a50969a509650509550613b3e565b6118c5613d92916001600160a01b0360d0613d7660e8611be97cffffff00000000000000000000000000000000000000000000000000008c851b167fffffff00000000000000000000000000000000000000000000000000000000008a841b160180921d614dfc565b0316906fffffffffffffffffffffffffffffffff8916026152a9565b61398f565b7f4e487b7100000000000000000000000000000000000000000000000000000000600052601160045260246000fd5b506001613870565b602090604051613ddd81613517565b604036823782828c0101520161379d565b906004929160e06001600160a01b0360005416604051958680927f3850c7bd0000000000000000000000000000000000000000000000000000000082525afa93841561177e57600094613ed4575b508391613e75600260015462ffffff808281601860078360cc1c1602161c16830b9181601860078360c91c1602161c16820b01810b0590565b948160020b8360020b818114600014613eb857505050505091907ffffffffffffffffffffffffffffffffffffffffffffffffffffffffffff2761990620d89e790565b909192945094929413613ecc575b93929190565b929192613ec6565b613eed91945060e03d8111610187576101728183613533565b505050505090509238613e3c565b9081606091031261132657805191613f1a60406020840151930161366b565b90565b519081600f0b820361132657565b9081606091031261132657613f3f81613f1d565b91613f1a604060208401519301613f1d565b51906fffffffffffffffffffffffffffffffff8216820361132657565b919082604091031261132657613f1a6020613f8884613f51565b9301613f51565b8115613f99570490565b7f4e487b7100000000000000000000000000000000000000000000000000000000600052601260045260246000fd5b9092916001600160a01b03614038911661402f817bffffffffffffffffffffffffffffffff00000000000000000000000061400882828a60601b16613f8f565b614024836fffffffffffffffffffffffffffffffff89166151a5565b019760201c16613f8f565b9260801c6151a5565b0190565b94939460005b8681106140525750505050509050565b8061406c8585856140666001968d8c6136fb565b35614072565b01614042565b926140836060916141269394613dee565b95929391506001600160a01b03831660005260056020526040600020876000526020526fffffffffffffffffffffffffffffffff604060002054169560405195869283927f266601a3000000000000000000000000000000000000000000000000000000008452898b60048601926fffffffffffffffffffffffffffffffff606093969592966080860197865216602085015260020b604084015260020b910152565b038160006001600160a01b037f0000000000000000000000000000000000000000000000000000000000000000165af1801561177e576000936000916148e1575b5061417190614986565b600061417c86615a5b565b9060005b8281106144605750906000929161419f845460a01c60020b888a6154cb565b6002546040517f083953d90000000000000000000000000000000000000000000000000000000081526001600160a01b038781166004830152600f85810b602484015284810b60448401528b810b606484015286900b6084830152909792949392602092899260a49284929091165af195861561177e5760009661441e575b506003546040517f083953d90000000000000000000000000000000000000000000000000000000081526001600160a01b038781166004830152608093841d600f90810b602484015295841d860b604483015299831d850b60648201529290911d90920b608482015295602091879160a4918391600091165af194851561177e576000956143e2575b506001600160a01b03821660005260056020526040600020876000526020526000604081205560005b8181106143745750506001600160a01b03811660005260066020526142fa86604060002054615246565b9160208360f81c116116a7577f595c92689333e5f7a6d5b4a40d80bf6339d70bd322c44cea25cafefae7f6701a946060946001600160a01b0394858516600052600660205260406000205560405197885260020b602088015260801b906fffffffffffffffffffffffffffffffff160160408601521692a3565b6001908189604860308402011c16156143bf575b6001600160a01b038416600052600460205260406000208960005260205260406000208160005260205260006040812055016142d0565b6143dd6143d560005460a01c60020b838c615970565b90838c614b6e565b614388565b9094506020813d602011614416575b816143fe60209383613533565b810103126113265761440f90613f1d565b93386142a7565b3d91506143f1565b92919095506020833d602011614458575b8161443c60209383613533565b810103126113265761444f602093613f1d565b9590919261421e565b3d915061442f565b60018089604860308502011c161480156148d9575b614482575b600101614180565b90600054906144988260a01c60020b848b615970565b9290607f8b604160308802011c168a8181020481148b151715613d97578a60018d603089026040011c1615600014614860576118c5906145589260d0906001600160a01b0361453f60e86145357cffffff00000000000000000000000000000000000000000000000000008d871b167fffffff00000000000000000000000000000000000000000000000000000000008b841b160180921d614dfc565b941c60020b614dfc565b9261454e8282168386166151a5565b9303169202615456565b6040517f3cc3c1da0000000000000000000000000000000000000000000000000000000081526001600160a01b03939093166004840152306024840152600160308702604981018e901c8216604486015260d087811b7cffffff00000000000000000000000000000000000000000000000000001660e886811b7fffffff0000000000000000000000000000000000000000000000000000000000166fffffffffffffffffffffffffffffffff8716019190910180821d600290810b60648a015290831c900b6084880152627fffff60a488015260489092018f901c90921660c48601529093918260e4810103837f00000000000000000000000000000000000000000000000000000000000000006001600160a01b031691815a93604094fa93841561177e576001978f8a908d6000976000996147a8575b507fffffff00000000000000000000000000000000000000000000000000000000007fffffffffffffffffffffffffffffffff00000000000000000000000000000000957cffffff00000000000000000000000000000000000000000000000000006fffffffffffffffffffffffffffffffff9995968a9995978a986001600160a01b038a971660005260046020526040600020906000526020526040600020906000526020526040600020549d1b16941b1691160101168095838860801c9116030260401b1694169116030260401c6fffffffffffffffffffffffffffffffff1601828a604860308702011c161560001461479957614790916158c2565b915b905061447a565b6147a291615917565b91614792565b6fffffffffffffffffffffffffffffffff9793889793889687949c506001600160a01b039b507fffffffffffffffffffffffffffffffff0000000000000000000000000000000098927cffffff0000000000000000000000000000000000000000000000000000926148497fffffff00000000000000000000000000000000000000000000000000000000009660403d604011611b7957611b628183613533565b9e909e9f975050969a50969a509650509550614691565b506118c56148d4916001600160a01b0360d06148ca60e8611be97cffffff00000000000000000000000000000000000000000000000000008c851b167fffffff00000000000000000000000000000000000000000000000000000000008a841b160180921d614dfc565b0316908d026152a9565b614558565b506001614475565b61417194506148fe915060603d8111611c6957611c578183613533565b9491509390614167565b9190826040910312611326576020825192015190565b926060926001600160a01b0361494d9397969716855260020b602085015260806040850152608084019061347f565b93600f0b910152565b600f0b7fffffffffffffffffffffffffffffffff800000000000000000000000000000008114613d975760000390565b6001908154603c8160d81c0142101561499e57505050565b600062ffffff81858060c086901c841681805b614a0a575b505050505077ffffffffffffffffffffffffffffffffffffffffffffffff907affffff000000000000000000000000000000000000000000000000929394169360181b169160c01b164260d81b0101019055565b909192939560ff808816906008821015614ac15790848a8c8b9897969594600793849160039b8c02161c16928314614aa85791858b94928b969482614a8d575b5050614a7e575b90838899816000198160ff9a9b9c818b81990116960116011602161b160116975b011693929190836149b1565b96840183169660009550614a51565b909150856002928160188602161c16820b910b138d8f614a4a565b505050509693509091848660001960ff93011694614a72565b5050958493506149b6565b6001600160a01b0360005416604051907f5ac17dfa0000000000000000000000000000000000000000000000000000000082526004820152610258602482015260208160448173__$c3f55a3e7e4b410bf199cd5e3e47df218f$__5af490811561177e57600091614b3b575090565b906020823d8211614b66575b81614b5460209383613533565b810103126101995750613f1a9061366b565b3d9150614b47565b60a4906020936030956001600160a01b0391600183600054169460496040519a8b998a987fe53dec38000000000000000000000000000000000000000000000000000000008a5260048a01523060248a015202011c16604485015260020b606484015260020b60848301527f0000000000000000000000000000000000000000000000000000000000000000165afa90811561177e57600091614c96575b506fffffffffffffffffffffffffffffffff8116908060801c1580614c8e575b614c8a576409000000009173ffffffffffffffffffffffffffffffff00000000614c599260601c16613f8f565b11614c6057565b60046040517f3a8795c2000000000000000000000000000000000000000000000000000000008152fd5b5050565b508115614c2c565b906020823d8211614cbf575b81614caf60209383613533565b8101031261019957505138614c0c565b3d9150614ca2565b60a4906020936030956001600160a01b0391600183600054169460496040519a8b998a987fe53dec38000000000000000000000000000000000000000000000000000000008a5260048a01523060248a015202011c16604485015260020b606484015260020b60848301527f0000000000000000000000000000000000000000000000000000000000000000165afa90811561177e57600091614dcb575b506fffffffffffffffffffffffffffffffff8116908060801c1580614dc3575b614dbe5767ffffffffffffffff9173ffffffffffffffffffffffffffffffff00000000614db59260601c16613f8f565b911610614c6057565b505050565b508115614d85565b906020823d8211614df4575b81614de460209383613533565b8101031261019957505138614d65565b3d9150614dd7565b60020b600081121561519f5780600003905b620d89e8821161517557600182161561514c5770ffffffffffffffffffffffffffffffffff6ffffcb933bd6fad37aa2d162d1a5940015b169160028116615130575b60048116615114575b600881166150f8575b601081166150dc575b602081166150c0575b604081166150a4575b608090818116615089575b610100811661506e575b6102008116615053575b6104008116615038575b610800811661501d575b6110008116615002575b6120008116614fe7575b6140008116614fcc575b6180008116614fb1575b620100008116614f96575b620200008116614f7c575b620400008116614f62575b6208000016614f47575b50600012614f38575b6001600160a01b039063ffffffff8116614f2f5760ff60005b169060201c011690565b60ff6001614f25565b8015613f995760001904614f0c565b6b048a170391f7dc42444e8fa26000929302901c9190614f03565b6d2216e584f5fa1ea926041bedfe98909302811c92614ef9565b926e5d6af8dedb81196699c329225ee60402811c92614eee565b926f09aa508b5b7a84e1c677de54f3e99bc902811c92614ee3565b926f31be135f97d08fd981231505542fcfa602811c92614ed8565b926f70d869a156d2a1b890bb3df62baf32f702811c92614ece565b926fa9f746462d870fdf8a65dc1f90e061e502811c92614ec4565b926fd097f3bdfd2022b8845ad8f792aa582502811c92614eba565b926fe7159475a2c29b7443b29c7fa6e889d902811c92614eb0565b926ff3392b0822b70005940c7a398e4b70f302811c92614ea6565b926ff987a7253ac413176f2b074cf7815e5402811c92614e9c565b926ffcbe86c7900a88aedcffc83b479aa3a402811c92614e92565b926ffe5dee046a99a2a811c461f1969c305302811c92614e88565b916fff2ea16466c96a3843ec78b326b528610260801c91614e7d565b916fff973b41fa98c081472e6896dfb254c00260801c91614e74565b916fffcb9843d60f6159c9db58835c9266440260801c91614e6b565b916fffe5caca7e10e4e61c3624eaa0941cd00260801c91614e62565b916ffff2e50f5f656932ef12357cf3c7fdcc0260801c91614e59565b916ffff97272373d413259a46990580e213a0260801c91614e50565b70ffffffffffffffffffffffffffffffffff700100000000000000000000000000000000614e45565b60046040517fce8ef7fc000000000000000000000000000000000000000000000000000000008152fd5b80614e0e565b60001982820990828102928380841093039280840393146151ea576c010000000000000000000000009183831115611326570990828211900360a01b910360601c1790565b50505060601c90565b90600190604051602081019182526020815261520e81613517565b7effffffffffffffffffffffffffffffffffffffffffffffffffffffffffffff9182915190201681841618169160f81c0160f81b0190565b9060001990604051602081019182526020815261520e81613517565b906fffffffffffffffffffffffffffffffff821691820361527f57565b60046040517fb6680045000000000000000000000000000000000000000000000000000000008152fd5b906c0100000000000000000000000090600019828409928060601b9283808610950394808603951461532e57848311156113265782910981806000031680920460028082600302188083028203028083028203028083028203028083028203028083028203028092029003029360018380600003040190848311900302920304170290565b505080925015611326570490565b9070010000000000000000000000000000000090600019828409928060801b9283808610950394808603951461532e57848311156113265782910981806000031680920460028082600302188083028203028083028203028083028203028083028203028083028203028092029003029360018380600003040190848311900302920304170290565b90780100000000000000000000000000000000000000000000000090600019828409928060c01b9283808610950394808603951461532e57848311156113265782910981806000031680920460028082600302188083028203028083028203028083028203028083028203028083028203028092029003029360018380600003040190848311900302920304170290565b91600019828409928281029283808610950394808603951461532e57848311156113265782910981806000031680920460028082600302188083028203028083028203028083028203028083028203028083028203028092029003029360018380600003040190848311900302920304170290565b91929092600093600080946154df81615a5b565b9180945b8386106154f257505050505050565b909192939496976155cc8860309285867fffffffffffffffffffffffffffffffff0000000000000000000000000000000061552e88868c615970565b979095028c600198898d846040011c16908d821560001461562b5761557093607f6fffffffffffffffffffffffffffffffff92604188011c1602169889615677565b955b6080966fffffffffffffffffffffffffffffffff938491891b1691160195888c60498282604887011c161594011c16156000146155f15750156155d8576155be816155c6959616615657565b1601926158c2565b9a6158c2565b970194939291906154e3565b6155e9816155c69594939616615657565b1601906158c2565b9291501561561157506156096155c69394821c615657565b901b926158c2565b936155c693925061562390821c615657565b901b906158c2565b61565293607f6fffffffffffffffffffffffffffffffff92604188011c1602169889615677565b615572565b6fffffffffffffffffffffffffffffffff16600f0b906000821261527f57565b91909215600014615712576156a660026156ad946fffffffffffffffffffffffffffffffff9301810b05614dfc565b9116615742565b801580156156f9575b6156cf576fffffffffffffffffffffffffffffffff1690565b60046040517f7d0a9ef3000000000000000000000000000000000000000000000000000000008152fd5b506fffffffffffffffffffffffffffffffff81116156b6565b615736600261573d946fffffffffffffffffffffffffffffffff9301810b05614dfc565b911661587d565b6156ad565b906001600160a01b0316906ffffec4b135bb7f32a81b33b5fb40724a8210600014615774576002613f1a920a90615823565b61578182613f1a93615787565b906157d1565b60001982820990828102928380841093039280840393146157c857680100000000000000009183831115611326570990828211900360c01b910360401c1790565b50505060401c90565b600019828209908281029283808410930392808403931461581a577001000000000000000000000000000000009183831115611326570990828211900360801b910360801c1790565b50505060801c90565b60001982820990828102928380841093039280840393146158745778010000000000000000000000000000000000000000000000009183831115611326570990828211900360401b910360c01c1790565b50505060c01c90565b906001600160a01b0316906ffffec4b135bb7f32a81b33b5fb40724a82106000146158af576002613f1a920a906153c5565b6158bc82613f1a93615787565b9061533c565b90600f918160801d830b8160801d840b0191830b90830b0191828280830b149182159261590a575b5050610a135760801b906fffffffffffffffffffffffffffffffff160190565b8192500b141582386158ea565b90600f918160801d830b8160801d840b0391830b90830b0391828280830b149182159261590a575050610a135760801b906fffffffffffffffffffffffffffffffff160190565b9060020b908115613f995760020b0790565b9290603002600284604c83011c810b9184820b958615613f9957610fff869160648594011c16820b02810b05808303820b9201810b9382956159b2828561595e565b830b1593841594615a45575b8415615a14575b508315615a00575b5050506159d657565b60046040517fc82825f5000000000000000000000000000000000000000000000000000000008152fd5b620d89e80502900b831390503880806159cd565b7ffffffffffffffffffffffffffffffffffffffffffffffffffffffffffff276188290058302840b139350386159c5565b9350615a51828761595e565b830b1515936159be565b7afe0000000000fe0000000000fe0000000000fe00000000000000001668010000000000000000811015615a8f5750600090565b6e010000000000000000000000000000811015615aac5750600190565b74010000000000000000000000000000000000000000811015615acf5750600290565b7a01000000000000000000000000000000000000000000000000000011615af557600490565b600390565b919091615b0681615a5b565b9260005b848110615b3b5760046040517f7721f7da000000000000000000000000000000000000000000000000000000008152fd5b6030810260028086610fff87606486011c16820b02810b0585604c84011c820b9185810b91808401820b831293841594615b9f575b50505050615b82575b50600101615b0a565b60480183901c600190811614615b985738615b79565b5050505050565b03900b13905038808080615b7056fea2646970667358221220facce45719cc1aa810729caebef800d5960be7505d68c1a599fa878e5b48c77b64736f6c63430008120033",
    "linkReferences": {
      "contracts/libraries/FeesCalc.sol": {
        "FeesCalc": [
          {
            "start": 1162,
            "length": 20
          }
        ]
      },
      "contracts/libraries/InteractionHelper.sol": {
        "InteractionHelper": [
          {
            "start": 12959,
            "length": 20
          }
        ]
      },
      "contracts/libraries/PanopticMath.sol": {
        "PanopticMath": [
          {
            "start": 19437,
            "length": 20
          }
        ]
      }
    }
  },
  "methodIdentifiers": {
    "burnOptions(uint256,int24,int24)": "3f7ea9f8",
    "burnOptions(uint256[],int24,int24)": "d02006f7",
    "calculateAccumulatedFeesBatch(address,uint256[])": "0ee8e63a",
    "calculatePortfolioValue(address,int24,uint256[])": "cde6008a",
    "collateralToken0()": "7594cdc3",
    "collateralToken1()": "4d7b0900",
    "forceExercise(address,int24,int24,uint256[],uint256[])": "9093b3f2",
    "getPriceArray()": "799ee0c5",
    "liquidateAccount(address,int24,int24,uint256[])": "b39058a5",
    "mintOptions(uint256[],uint128,uint64,int24,int24)": "2a3f8025",
    "multicall(bytes[])": "ac9650d8",
    "numberOfPositions(address)": "7f96a064",
    "onERC1155BatchReceived(address,address,uint256[],uint256[],bytes)": "bc197c81",
    "onERC1155Received(address,address,uint256,uint256,bytes)": "f23a6e61",
    "optionPositionBalance(address,uint256)": "cf1a1f2b",
    "pokeMedian()": "f34f6c1a",
    "startPool(address,int24,int24,address,address,address,address)": "12cfdc3e",
    "supportsInterface(bytes4)": "01ffc9a7",
    "univ3pool()": "4f94c530"
  },
  "id": 3
}